{
  "contractName": "DragonSoul",
  "abi": [
    {
      "inputs": [],
      "stateMutability": "nonpayable",
      "type": "constructor"
    },
    {
      "anonymous": false,
      "inputs": [
        {
          "indexed": true,
          "internalType": "address",
          "name": "owner",
          "type": "address"
        },
        {
          "indexed": true,
          "internalType": "address",
          "name": "spender",
          "type": "address"
        },
        {
          "indexed": false,
          "internalType": "uint256",
          "name": "value",
          "type": "uint256"
        }
      ],
      "name": "Approval",
      "type": "event"
    },
    {
      "anonymous": false,
      "inputs": [
        {
          "indexed": true,
          "internalType": "address",
          "name": "previousOwner",
          "type": "address"
        },
        {
          "indexed": true,
          "internalType": "address",
          "name": "newOwner",
          "type": "address"
        }
      ],
      "name": "OwnershipTransferred",
      "type": "event"
    },
    {
      "anonymous": false,
      "inputs": [
        {
          "indexed": true,
          "internalType": "address",
          "name": "from",
          "type": "address"
        },
        {
          "indexed": true,
          "internalType": "address",
          "name": "to",
          "type": "address"
        },
        {
          "indexed": false,
          "internalType": "uint256",
          "name": "value",
          "type": "uint256"
        }
      ],
      "name": "Transfer",
      "type": "event"
    },
    {
      "inputs": [
        {
          "internalType": "address",
          "name": "owner",
          "type": "address"
        },
        {
          "internalType": "address",
          "name": "spender",
          "type": "address"
        }
      ],
      "name": "allowance",
      "outputs": [
        {
          "internalType": "uint256",
          "name": "",
          "type": "uint256"
        }
      ],
      "stateMutability": "view",
      "type": "function",
      "constant": true
    },
    {
      "inputs": [
        {
          "internalType": "address",
          "name": "spender",
          "type": "address"
        },
        {
          "internalType": "uint256",
          "name": "amount",
          "type": "uint256"
        }
      ],
      "name": "approve",
      "outputs": [
        {
          "internalType": "bool",
          "name": "",
          "type": "bool"
        }
      ],
      "stateMutability": "nonpayable",
      "type": "function"
    },
    {
      "inputs": [
        {
          "internalType": "address",
          "name": "account",
          "type": "address"
        }
      ],
      "name": "balanceOf",
      "outputs": [
        {
          "internalType": "uint256",
          "name": "",
          "type": "uint256"
        }
      ],
      "stateMutability": "view",
      "type": "function",
      "constant": true
    },
    {
      "inputs": [],
      "name": "decimals",
      "outputs": [
        {
          "internalType": "uint8",
          "name": "",
          "type": "uint8"
        }
      ],
      "stateMutability": "view",
      "type": "function",
      "constant": true
    },
    {
      "inputs": [
        {
          "internalType": "address",
          "name": "spender",
          "type": "address"
        },
        {
          "internalType": "uint256",
          "name": "subtractedValue",
          "type": "uint256"
        }
      ],
      "name": "decreaseAllowance",
      "outputs": [
        {
          "internalType": "bool",
          "name": "",
          "type": "bool"
        }
      ],
      "stateMutability": "nonpayable",
      "type": "function"
    },
    {
      "inputs": [
        {
          "internalType": "address",
          "name": "spender",
          "type": "address"
        },
        {
          "internalType": "uint256",
          "name": "addedValue",
          "type": "uint256"
        }
      ],
      "name": "increaseAllowance",
      "outputs": [
        {
          "internalType": "bool",
          "name": "",
          "type": "bool"
        }
      ],
      "stateMutability": "nonpayable",
      "type": "function"
    },
    {
      "inputs": [],
      "name": "name",
      "outputs": [
        {
          "internalType": "string",
          "name": "",
          "type": "string"
        }
      ],
      "stateMutability": "view",
      "type": "function",
      "constant": true
    },
    {
      "inputs": [],
      "name": "owner",
      "outputs": [
        {
          "internalType": "address",
          "name": "",
          "type": "address"
        }
      ],
      "stateMutability": "view",
      "type": "function",
      "constant": true
    },
    {
      "inputs": [],
      "name": "renounceOwnership",
      "outputs": [],
      "stateMutability": "nonpayable",
      "type": "function"
    },
    {
      "inputs": [],
      "name": "symbol",
      "outputs": [
        {
          "internalType": "string",
          "name": "",
          "type": "string"
        }
      ],
      "stateMutability": "view",
      "type": "function",
      "constant": true
    },
    {
      "inputs": [],
      "name": "totalSupply",
      "outputs": [
        {
          "internalType": "uint256",
          "name": "",
          "type": "uint256"
        }
      ],
      "stateMutability": "view",
      "type": "function",
      "constant": true
    },
    {
      "inputs": [
        {
          "internalType": "address",
          "name": "recipient",
          "type": "address"
        },
        {
          "internalType": "uint256",
          "name": "amount",
          "type": "uint256"
        }
      ],
      "name": "transfer",
      "outputs": [
        {
          "internalType": "bool",
          "name": "",
          "type": "bool"
        }
      ],
      "stateMutability": "nonpayable",
      "type": "function"
    },
    {
      "inputs": [
        {
          "internalType": "address",
          "name": "sender",
          "type": "address"
        },
        {
          "internalType": "address",
          "name": "recipient",
          "type": "address"
        },
        {
          "internalType": "uint256",
          "name": "amount",
          "type": "uint256"
        }
      ],
      "name": "transferFrom",
      "outputs": [
        {
          "internalType": "bool",
          "name": "",
          "type": "bool"
        }
      ],
      "stateMutability": "nonpayable",
      "type": "function"
    },
    {
      "inputs": [
        {
          "internalType": "address",
          "name": "newOwner",
          "type": "address"
        }
      ],
      "name": "transferOwnership",
      "outputs": [],
      "stateMutability": "nonpayable",
      "type": "function"
    },
    {
      "inputs": [
        {
          "internalType": "address",
          "name": "account",
          "type": "address"
        },
        {
          "internalType": "uint256",
          "name": "amount",
          "type": "uint256"
        }
      ],
      "name": "mint",
      "outputs": [
        {
          "internalType": "bool",
          "name": "",
          "type": "bool"
        }
      ],
      "stateMutability": "nonpayable",
      "type": "function"
    },
    {
      "inputs": [
        {
          "internalType": "uint256",
          "name": "amount",
          "type": "uint256"
        }
      ],
      "name": "burn",
      "outputs": [
        {
          "internalType": "bool",
          "name": "",
          "type": "bool"
        }
      ],
      "stateMutability": "nonpayable",
      "type": "function"
    }
  ],
  "bytecode": "0x60806040523480156200001157600080fd5b506040518060400160405280600f81526020017f447261676f6e536f756c53746f6e6500000000000000000000000000000000008152506040518060400160405280600381526020017f4453530000000000000000000000000000000000000000000000000000000000815250816003908051906020019062000096929190620009e2565b508060049080519060200190620000af929190620009e2565b505050620000d2620000c66200067e60201b60201c565b6200068660201b60201c565b6b033b2e3c9fd0803ce80000006006819055506000604051620000f59062000a73565b604051809103906000f08015801562000112573d6000803e3d6000fd5b5090506200014673b40ea1da6a55bdf2b5bfbd054cc7ddb53f8ac6156a0f18967b7e1bf0ba4000006200074c60201b60201c565b5060008173ffffffffffffffffffffffffffffffffffffffff16636acaa16e3073b40ea1da6a55bdf2b5bfbd054cc7ddb53f8ac61562278d00426200018c919062000e56565b6a0f18967b7e1bf0ba40000062278d006040518663ffffffff1660e01b8152600401620001be95949392919062000cab565b602060405180830381600087803b158015620001d957600080fd5b505af1158015620001ee573d6000803e3d6000fd5b505050506040513d601f19601f8201168201806040525081019062000214919062000ab7565b905062000233816a2d49c3727a53d22ec000006200074c60201b60201c565b5060008273ffffffffffffffffffffffffffffffffffffffff16636acaa16e3073b40ea1da6a55bdf2b5bfbd054cc7ddb53f8ac61562ed4e004262000279919062000e56565b6a108b2a2c2802909400000062278d006040518663ffffffff1660e01b8152600401620002ab95949392919062000d08565b602060405180830381600087803b158015620002c657600080fd5b505af1158015620002db573d6000803e3d6000fd5b505050506040513d601f19601f8201168201806040525081019062000301919062000ab7565b905062000320816acecb8f27f4200f3a0000006200074c60201b60201c565b5060008373ffffffffffffffffffffffffffffffffffffffff16636acaa16e3073b40ea1da6a55bdf2b5bfbd054cc7ddb53f8ac6156276a7004262000366919062000e56565b6a034f086f3b33b68400000062278d006040518663ffffffff1660e01b81526004016200039895949392919062000d65565b602060405180830381600087803b158015620003b357600080fd5b505af1158015620003c8573d6000803e3d6000fd5b505050506040513d601f19601f82011682018060405250810190620003ee919062000ab7565b90506200040d816a295be96e640669720000006200074c60201b60201c565b506200043f73b40ea1da6a55bdf2b5bfbd054cc7ddb53f8ac6156a027b46536c66c8e30000006200074c60201b60201c565b5060008473ffffffffffffffffffffffffffffffffffffffff16636acaa16e3073b40ea1da6a55bdf2b5bfbd054cc7ddb53f8ac61562278d004262000485919062000e56565b6a013da329b633647180000062278d006040518663ffffffff1660e01b8152600401620004b795949392919062000c4e565b602060405180830381600087803b158015620004d257600080fd5b505af1158015620004e7573d6000803e3d6000fd5b505050506040513d601f19601f820116820180604052508101906200050d919062000ab7565b90506200052c816a165578eecf9d0ffb0000006200074c60201b60201c565b506200055e73b40ea1da6a55bdf2b5bfbd054cc7ddb53f8ac6156a134d0684391b6cca3400006200074c60201b60201c565b506200059073b40ea1da6a55bdf2b5bfbd054cc7ddb53f8ac6156a0583b8be02e86c13cc00006200074c60201b60201c565b5060008573ffffffffffffffffffffffffffffffffffffffff16636acaa16e3073b40ea1da6a55bdf2b5bfbd054cc7ddb53f8ac6156276a70042620005d6919062000e56565b6000806040518663ffffffff1660e01b8152600401620005fb95949392919062000bf1565b602060405180830381600087803b1580156200061657600080fd5b505af11580156200062b573d6000803e3d6000fd5b505050506040513d601f19601f8201168201806040525081019062000651919062000ab7565b905062000671816b01b667dd922443f7520000006200074c60201b60201c565b50505050505050620010e0565b600033905090565b6000600560009054906101000a900473ffffffffffffffffffffffffffffffffffffffff16905081600560006101000a81548173ffffffffffffffffffffffffffffffffffffffff021916908373ffffffffffffffffffffffffffffffffffffffff1602179055508173ffffffffffffffffffffffffffffffffffffffff168173ffffffffffffffffffffffffffffffffffffffff167f8be0079c531659141344cd1fd0a4f28419497f9722a3daafe3b4186f6b6457e060405160405180910390a35050565b60006200075e6200067e60201b60201c565b73ffffffffffffffffffffffffffffffffffffffff16620007846200085d60201b60201c565b73ffffffffffffffffffffffffffffffffffffffff1614620007dd576040517f08c379a0000000000000000000000000000000000000000000000000000000008152600401620007d49062000dc2565b60405180910390fd5b60065482620007f16200088760201b60201c565b620007fd919062000e56565b111562000841576040517f08c379a0000000000000000000000000000000000000000000000000000000008152600401620008389062000de4565b60405180910390fd5b6200085383836200089160201b60201c565b6001905092915050565b6000600560009054906101000a900473ffffffffffffffffffffffffffffffffffffffff16905090565b6000600254905090565b600073ffffffffffffffffffffffffffffffffffffffff168273ffffffffffffffffffffffffffffffffffffffff16141562000904576040517f08c379a0000000000000000000000000000000000000000000000000000000008152600401620008fb9062000e06565b60405180910390fd5b806002600082825462000918919062000e56565b92505081905550806000808473ffffffffffffffffffffffffffffffffffffffff1673ffffffffffffffffffffffffffffffffffffffff16815260200190815260200160002060008282546200096f919062000e56565b925050819055508173ffffffffffffffffffffffffffffffffffffffff16600073ffffffffffffffffffffffffffffffffffffffff167fddf252ad1be2c89b69c2b068fc378daa952ba7f163c4a11628f55a4df523b3ef83604051620009d6919062000e28565b60405180910390a35050565b828054620009f09062000f91565b90600052602060002090601f01602090048101928262000a14576000855562000a60565b82601f1062000a2f57805160ff191683800117855562000a60565b8280016001018555821562000a60579182015b8281111562000a5f57825182559160200191906001019062000a42565b5b50905062000a6f919062000a81565b5090565b611d6f8062002fe483390190565b5b8082111562000a9c57600081600090555060010162000a82565b5090565b60008151905062000ab181620010c6565b92915050565b60006020828403121562000aca57600080fd5b600062000ada8482850162000aa0565b91505092915050565b62000aee8162000eb3565b82525050565b62000aff8162000ef1565b82525050565b62000b108162000f19565b82525050565b62000b218162000f2d565b82525050565b62000b328162000f41565b82525050565b62000b438162000f55565b82525050565b62000b548162000f69565b82525050565b62000b658162000f7d565b82525050565b600062000b7a60208362000e45565b915062000b878262001025565b602082019050919050565b600062000ba160358362000e45565b915062000bae826200104e565b604082019050919050565b600062000bc8601f8362000e45565b915062000bd5826200109d565b602082019050919050565b62000beb8162000ee7565b82525050565b600060a08201905062000c08600083018862000af4565b62000c17602083018762000ae3565b62000c26604083018662000be0565b62000c35606083018562000b05565b62000c44608083018462000b05565b9695505050505050565b600060a08201905062000c65600083018862000af4565b62000c74602083018762000ae3565b62000c83604083018662000be0565b62000c92606083018562000b16565b62000ca1608083018462000b49565b9695505050505050565b600060a08201905062000cc2600083018862000af4565b62000cd1602083018762000ae3565b62000ce0604083018662000be0565b62000cef606083018562000b27565b62000cfe608083018462000b49565b9695505050505050565b600060a08201905062000d1f600083018862000af4565b62000d2e602083018762000ae3565b62000d3d604083018662000be0565b62000d4c606083018562000b38565b62000d5b608083018462000b49565b9695505050505050565b600060a08201905062000d7c600083018862000af4565b62000d8b602083018762000ae3565b62000d9a604083018662000be0565b62000da9606083018562000b5a565b62000db8608083018462000b49565b9695505050505050565b6000602082019050818103600083015262000ddd8162000b6b565b9050919050565b6000602082019050818103600083015262000dff8162000b92565b9050919050565b6000602082019050818103600083015262000e218162000bb9565b9050919050565b600060208201905062000e3f600083018462000be0565b92915050565b600082825260208201905092915050565b600062000e638262000ee7565b915062000e708362000ee7565b9250827fffffffffffffffffffffffffffffffffffffffffffffffffffffffffffffffff0382111562000ea85762000ea762000fc7565b5b828201905092915050565b600062000ec08262000ec7565b9050919050565b600073ffffffffffffffffffffffffffffffffffffffff82169050919050565b6000819050919050565b600062000efe8262000f05565b9050919050565b600062000f128262000ec7565b9050919050565b600062000f268262000ee7565b9050919050565b600062000f3a8262000ee7565b9050919050565b600062000f4e8262000ee7565b9050919050565b600062000f628262000ee7565b9050919050565b600062000f768262000ee7565b9050919050565b600062000f8a8262000ee7565b9050919050565b6000600282049050600182168062000faa57607f821691505b6020821081141562000fc15762000fc062000ff6565b5b50919050565b7f4e487b7100000000000000000000000000000000000000000000000000000000600052601160045260246000fd5b7f4e487b7100000000000000000000000000000000000000000000000000000000600052602260045260246000fd5b7f4f776e61626c653a2063616c6c6572206973206e6f7420746865206f776e6572600082015250565b7f447261676f6e536f756c20546f6b656e3a206d696e74206d6f7265207468616e60008201527f20746865206d617820746f74616c20737570706c790000000000000000000000602082015250565b7f45524332303a206d696e7420746f20746865207a65726f206164647265737300600082015250565b620010d18162000eb3565b8114620010dd57600080fd5b50565b611ef480620010f06000396000f3fe608060405234801561001057600080fd5b50600436106101005760003560e01c806370a0823111610097578063a457c2d711610066578063a457c2d7146102c5578063a9059cbb146102f5578063dd62ed3e14610325578063f2fde38b1461035557610100565b806370a082311461024f578063715018a61461027f5780638da5cb5b1461028957806395d89b41146102a757610100565b8063313ce567116100d3578063313ce567146101a157806339509351146101bf57806340c10f19146101ef57806342966c681461021f57610100565b806306fdde0314610105578063095ea7b31461012357806318160ddd1461015357806323b872dd14610171575b600080fd5b61010d610371565b60405161011a9190611712565b60405180910390f35b61013d6004803603810190610138919061143b565b610403565b60405161014a91906116f7565b60405180910390f35b61015b61041a565b60405161016891906118d4565b60405180910390f35b61018b600480360381019061018691906113ec565b610424565b60405161019891906116f7565b60405180910390f35b6101a9610517565b6040516101b691906118ef565b60405180910390f35b6101d960048036038101906101d4919061143b565b610520565b6040516101e691906116f7565b60405180910390f35b6102096004803603810190610204919061143b565b6105be565b60405161021691906116f7565b60405180910390f35b61023960048036038101906102349190611477565b6106a7565b60405161024691906116f7565b60405180910390f35b61026960048036038101906102649190611387565b610738565b60405161027691906118d4565b60405180910390f35b610287610780565b005b610291610808565b60405161029e91906116dc565b60405180910390f35b6102af610832565b6040516102bc9190611712565b60405180910390f35b6102df60048036038101906102da919061143b565b6108c4565b6040516102ec91906116f7565b60405180910390f35b61030f600480360381019061030a919061143b565b6109aa565b60405161031c91906116f7565b60405180910390f35b61033f600480360381019061033a91906113b0565b6109c1565b60405161034c91906118d4565b60405180910390f35b61036f600480360381019061036a9190611387565b610a48565b005b60606003805461038090611a38565b80601f01602080910402602001604051908101604052809291908181526020018280546103ac90611a38565b80156103f95780601f106103ce576101008083540402835291602001916103f9565b820191906000526020600020905b8154815290600101906020018083116103dc57829003601f168201915b5050505050905090565b6000610410338484610b40565b6001905092915050565b6000600254905090565b6000610431848484610d0b565b6000600160008673ffffffffffffffffffffffffffffffffffffffff1673ffffffffffffffffffffffffffffffffffffffff16815260200190815260200160002060003373ffffffffffffffffffffffffffffffffffffffff1673ffffffffffffffffffffffffffffffffffffffff168152602001908152602001600020549050828110156104f5576040517f08c379a00000000000000000000000000000000000000000000000000000000081526004016104ec906117d4565b60405180910390fd5b61050b85338584610506919061197c565b610b40565b60019150509392505050565b60006012905090565b60006105b4338484600160003373ffffffffffffffffffffffffffffffffffffffff1673ffffffffffffffffffffffffffffffffffffffff16815260200190815260200160002060008873ffffffffffffffffffffffffffffffffffffffff1673ffffffffffffffffffffffffffffffffffffffff168152602001908152602001600020546105af9190611926565b610b40565b6001905092915050565b60006105c8610f7f565b73ffffffffffffffffffffffffffffffffffffffff166105e6610808565b73ffffffffffffffffffffffffffffffffffffffff161461063c576040517f08c379a0000000000000000000000000000000000000000000000000000000008152600401610633906117f4565b60405180910390fd5b6006548261064861041a565b6106529190611926565b1115610693576040517f08c379a000000000000000000000000000000000000000000000000000000000815260040161068a90611814565b60405180910390fd5b61069d8383610f87565b6001905092915050565b60006106b1610f7f565b73ffffffffffffffffffffffffffffffffffffffff166106cf610808565b73ffffffffffffffffffffffffffffffffffffffff1614610725576040517f08c379a000000000000000000000000000000000000000000000000000000000815260040161071c906117f4565b60405180910390fd5b61072f33836110cf565b60019050919050565b60008060008373ffffffffffffffffffffffffffffffffffffffff1673ffffffffffffffffffffffffffffffffffffffff168152602001908152602001600020549050919050565b610788610f7f565b73ffffffffffffffffffffffffffffffffffffffff166107a6610808565b73ffffffffffffffffffffffffffffffffffffffff16146107fc576040517f08c379a00000000000000000000000000000000000000000000000000000000081526004016107f3906117f4565b60405180910390fd5b6108066000611297565b565b6000600560009054906101000a900473ffffffffffffffffffffffffffffffffffffffff16905090565b60606004805461084190611a38565b80601f016020809104026020016040519081016040528092919081815260200182805461086d90611a38565b80156108ba5780601f1061088f576101008083540402835291602001916108ba565b820191906000526020600020905b81548152906001019060200180831161089d57829003601f168201915b5050505050905090565b600080600160003373ffffffffffffffffffffffffffffffffffffffff1673ffffffffffffffffffffffffffffffffffffffff16815260200190815260200160002060008573ffffffffffffffffffffffffffffffffffffffff1673ffffffffffffffffffffffffffffffffffffffff16815260200190815260200160002054905082811015610989576040517f08c379a000000000000000000000000000000000000000000000000000000000815260040161098090611894565b60405180910390fd5b61099f3385858461099a919061197c565b610b40565b600191505092915050565b60006109b7338484610d0b565b6001905092915050565b6000600160008473ffffffffffffffffffffffffffffffffffffffff1673ffffffffffffffffffffffffffffffffffffffff16815260200190815260200160002060008373ffffffffffffffffffffffffffffffffffffffff1673ffffffffffffffffffffffffffffffffffffffff16815260200190815260200160002054905092915050565b610a50610f7f565b73ffffffffffffffffffffffffffffffffffffffff16610a6e610808565b73ffffffffffffffffffffffffffffffffffffffff1614610ac4576040517f08c379a0000000000000000000000000000000000000000000000000000000008152600401610abb906117f4565b60405180910390fd5b600073ffffffffffffffffffffffffffffffffffffffff168173ffffffffffffffffffffffffffffffffffffffff161415610b34576040517f08c379a0000000000000000000000000000000000000000000000000000000008152600401610b2b90611774565b60405180910390fd5b610b3d81611297565b50565b600073ffffffffffffffffffffffffffffffffffffffff168373ffffffffffffffffffffffffffffffffffffffff161415610bb0576040517f08c379a0000000000000000000000000000000000000000000000000000000008152600401610ba790611874565b60405180910390fd5b600073ffffffffffffffffffffffffffffffffffffffff168273ffffffffffffffffffffffffffffffffffffffff161415610c20576040517f08c379a0000000000000000000000000000000000000000000000000000000008152600401610c1790611794565b60405180910390fd5b80600160008573ffffffffffffffffffffffffffffffffffffffff1673ffffffffffffffffffffffffffffffffffffffff16815260200190815260200160002060008473ffffffffffffffffffffffffffffffffffffffff1673ffffffffffffffffffffffffffffffffffffffff168152602001908152602001600020819055508173ffffffffffffffffffffffffffffffffffffffff168373ffffffffffffffffffffffffffffffffffffffff167f8c5be1e5ebec7d5bd14f71427d1e84f3dd0314c0f7b2291e5b200ac8c7c3b92583604051610cfe91906118d4565b60405180910390a3505050565b600073ffffffffffffffffffffffffffffffffffffffff168373ffffffffffffffffffffffffffffffffffffffff161415610d7b576040517f08c379a0000000000000000000000000000000000000000000000000000000008152600401610d7290611854565b60405180910390fd5b600073ffffffffffffffffffffffffffffffffffffffff168273ffffffffffffffffffffffffffffffffffffffff161415610deb576040517f08c379a0000000000000000000000000000000000000000000000000000000008152600401610de290611734565b60405180910390fd5b60008060008573ffffffffffffffffffffffffffffffffffffffff1673ffffffffffffffffffffffffffffffffffffffff16815260200190815260200160002054905081811015610e71576040517f08c379a0000000000000000000000000000000000000000000000000000000008152600401610e68906117b4565b60405180910390fd5b8181610e7d919061197c565b6000808673ffffffffffffffffffffffffffffffffffffffff1673ffffffffffffffffffffffffffffffffffffffff16815260200190815260200160002081905550816000808573ffffffffffffffffffffffffffffffffffffffff1673ffffffffffffffffffffffffffffffffffffffff1681526020019081526020016000206000828254610f0d9190611926565b925050819055508273ffffffffffffffffffffffffffffffffffffffff168473ffffffffffffffffffffffffffffffffffffffff167fddf252ad1be2c89b69c2b068fc378daa952ba7f163c4a11628f55a4df523b3ef84604051610f7191906118d4565b60405180910390a350505050565b600033905090565b600073ffffffffffffffffffffffffffffffffffffffff168273ffffffffffffffffffffffffffffffffffffffff161415610ff7576040517f08c379a0000000000000000000000000000000000000000000000000000000008152600401610fee906118b4565b60405180910390fd5b80600260008282546110099190611926565b92505081905550806000808473ffffffffffffffffffffffffffffffffffffffff1673ffffffffffffffffffffffffffffffffffffffff168152602001908152602001600020600082825461105e9190611926565b925050819055508173ffffffffffffffffffffffffffffffffffffffff16600073ffffffffffffffffffffffffffffffffffffffff167fddf252ad1be2c89b69c2b068fc378daa952ba7f163c4a11628f55a4df523b3ef836040516110c391906118d4565b60405180910390a35050565b600073ffffffffffffffffffffffffffffffffffffffff168273ffffffffffffffffffffffffffffffffffffffff16141561113f576040517f08c379a000000000000000000000000000000000000000000000000000000000815260040161113690611834565b60405180910390fd5b60008060008473ffffffffffffffffffffffffffffffffffffffff1673ffffffffffffffffffffffffffffffffffffffff168152602001908152602001600020549050818110156111c5576040517f08c379a00000000000000000000000000000000000000000000000000000000081526004016111bc90611754565b60405180910390fd5b81816111d1919061197c565b6000808573ffffffffffffffffffffffffffffffffffffffff1673ffffffffffffffffffffffffffffffffffffffff168152602001908152602001600020819055508160026000828254611225919061197c565b92505081905550600073ffffffffffffffffffffffffffffffffffffffff168373ffffffffffffffffffffffffffffffffffffffff167fddf252ad1be2c89b69c2b068fc378daa952ba7f163c4a11628f55a4df523b3ef8460405161128a91906118d4565b60405180910390a3505050565b6000600560009054906101000a900473ffffffffffffffffffffffffffffffffffffffff16905081600560006101000a81548173ffffffffffffffffffffffffffffffffffffffff021916908373ffffffffffffffffffffffffffffffffffffffff1602179055508173ffffffffffffffffffffffffffffffffffffffff168173ffffffffffffffffffffffffffffffffffffffff167f8be0079c531659141344cd1fd0a4f28419497f9722a3daafe3b4186f6b6457e060405160405180910390a35050565b60008135905061136c81611e90565b92915050565b60008135905061138181611ea7565b92915050565b60006020828403121561139957600080fd5b60006113a78482850161135d565b91505092915050565b600080604083850312156113c357600080fd5b60006113d18582860161135d565b92505060206113e28582860161135d565b9150509250929050565b60008060006060848603121561140157600080fd5b600061140f8682870161135d565b93505060206114208682870161135d565b925050604061143186828701611372565b9150509250925092565b6000806040838503121561144e57600080fd5b600061145c8582860161135d565b925050602061146d85828601611372565b9150509250929050565b60006020828403121561148957600080fd5b600061149784828501611372565b91505092915050565b6114a9816119b0565b82525050565b6114b8816119c2565b82525050565b60006114c98261190a565b6114d38185611915565b93506114e3818560208601611a05565b6114ec81611ac8565b840191505092915050565b6000611504602383611915565b915061150f82611ad9565b604082019050919050565b6000611527602283611915565b915061153282611b28565b604082019050919050565b600061154a602683611915565b915061155582611b77565b604082019050919050565b600061156d602283611915565b915061157882611bc6565b604082019050919050565b6000611590602683611915565b915061159b82611c15565b604082019050919050565b60006115b3602883611915565b91506115be82611c64565b604082019050919050565b60006115d6602083611915565b91506115e182611cb3565b602082019050919050565b60006115f9603583611915565b915061160482611cdc565b604082019050919050565b600061161c602183611915565b915061162782611d2b565b604082019050919050565b600061163f602583611915565b915061164a82611d7a565b604082019050919050565b6000611662602483611915565b915061166d82611dc9565b604082019050919050565b6000611685602583611915565b915061169082611e18565b604082019050919050565b60006116a8601f83611915565b91506116b382611e67565b602082019050919050565b6116c7816119ee565b82525050565b6116d6816119f8565b82525050565b60006020820190506116f160008301846114a0565b92915050565b600060208201905061170c60008301846114af565b92915050565b6000602082019050818103600083015261172c81846114be565b905092915050565b6000602082019050818103600083015261174d816114f7565b9050919050565b6000602082019050818103600083015261176d8161151a565b9050919050565b6000602082019050818103600083015261178d8161153d565b9050919050565b600060208201905081810360008301526117ad81611560565b9050919050565b600060208201905081810360008301526117cd81611583565b9050919050565b600060208201905081810360008301526117ed816115a6565b9050919050565b6000602082019050818103600083015261180d816115c9565b9050919050565b6000602082019050818103600083015261182d816115ec565b9050919050565b6000602082019050818103600083015261184d8161160f565b9050919050565b6000602082019050818103600083015261186d81611632565b9050919050565b6000602082019050818103600083015261188d81611655565b9050919050565b600060208201905081810360008301526118ad81611678565b9050919050565b600060208201905081810360008301526118cd8161169b565b9050919050565b60006020820190506118e960008301846116be565b92915050565b600060208201905061190460008301846116cd565b92915050565b600081519050919050565b600082825260208201905092915050565b6000611931826119ee565b915061193c836119ee565b9250827fffffffffffffffffffffffffffffffffffffffffffffffffffffffffffffffff0382111561197157611970611a6a565b5b828201905092915050565b6000611987826119ee565b9150611992836119ee565b9250828210156119a5576119a4611a6a565b5b828203905092915050565b60006119bb826119ce565b9050919050565b60008115159050919050565b600073ffffffffffffffffffffffffffffffffffffffff82169050919050565b6000819050919050565b600060ff82169050919050565b60005b83811015611a23578082015181840152602081019050611a08565b83811115611a32576000848401525b50505050565b60006002820490506001821680611a5057607f821691505b60208210811415611a6457611a63611a99565b5b50919050565b7f4e487b7100000000000000000000000000000000000000000000000000000000600052601160045260246000fd5b7f4e487b7100000000000000000000000000000000000000000000000000000000600052602260045260246000fd5b6000601f19601f8301169050919050565b7f45524332303a207472616e7366657220746f20746865207a65726f206164647260008201527f6573730000000000000000000000000000000000000000000000000000000000602082015250565b7f45524332303a206275726e20616d6f756e7420657863656564732062616c616e60008201527f6365000000000000000000000000000000000000000000000000000000000000602082015250565b7f4f776e61626c653a206e6577206f776e657220697320746865207a65726f206160008201527f6464726573730000000000000000000000000000000000000000000000000000602082015250565b7f45524332303a20617070726f766520746f20746865207a65726f20616464726560008201527f7373000000000000000000000000000000000000000000000000000000000000602082015250565b7f45524332303a207472616e7366657220616d6f756e742065786365656473206260008201527f616c616e63650000000000000000000000000000000000000000000000000000602082015250565b7f45524332303a207472616e7366657220616d6f756e742065786365656473206160008201527f6c6c6f77616e6365000000000000000000000000000000000000000000000000602082015250565b7f4f776e61626c653a2063616c6c6572206973206e6f7420746865206f776e6572600082015250565b7f447261676f6e536f756c20546f6b656e3a206d696e74206d6f7265207468616e60008201527f20746865206d617820746f74616c20737570706c790000000000000000000000602082015250565b7f45524332303a206275726e2066726f6d20746865207a65726f2061646472657360008201527f7300000000000000000000000000000000000000000000000000000000000000602082015250565b7f45524332303a207472616e736665722066726f6d20746865207a65726f20616460008201527f6472657373000000000000000000000000000000000000000000000000000000602082015250565b7f45524332303a20617070726f76652066726f6d20746865207a65726f2061646460008201527f7265737300000000000000000000000000000000000000000000000000000000602082015250565b7f45524332303a2064656372656173656420616c6c6f77616e63652062656c6f7760008201527f207a65726f000000000000000000000000000000000000000000000000000000602082015250565b7f45524332303a206d696e7420746f20746865207a65726f206164647265737300600082015250565b611e99816119b0565b8114611ea457600080fd5b50565b611eb0816119ee565b8114611ebb57600080fd5b5056fea2646970667358221220a8234571747ced8f68f1e7dfe031237316289ad546b4a828b78d5b4f2bd1eaf264736f6c63430008040033608060405234801561001057600080fd5b5060405161001d9061007e565b604051809103906000f080158015610039573d6000803e3d6000fd5b506000806101000a81548173ffffffffffffffffffffffffffffffffffffffff021916908373ffffffffffffffffffffffffffffffffffffffff16021790555061008b565b6118e88061048783390190565b6103ed8061009a6000396000f3fe608060405234801561001057600080fd5b506004361061002b5760003560e01c80636acaa16e14610030575b600080fd5b61004a600480360381019061004591906101ee565b610060565b6040516100579190610292565b60405180910390f35b60008061008c60008054906101000a900473ffffffffffffffffffffffffffffffffffffffff16610145565b90508073ffffffffffffffffffffffffffffffffffffffff1663f934436e88888888886040518663ffffffff1660e01b81526004016100cf9594939291906102ad565b600060405180830381600087803b1580156100e957600080fd5b505af11580156100fd573d6000803e3d6000fd5b505050507f467b927bcc96ff56aa5ad9f93245b98645e025255658a2c6e56cae12f428a180816040516101309190610292565b60405180910390a18091505095945050505050565b6000808260601b90506040517f3d602d80600a3d3981f3363d3d373d3d3d363d7300000000000000000000000081528160148201527f5af43d82803e903d91602b57fd5bf3000000000000000000000000000000000060288201526037816000f092505050919050565b6000813590506101be81610372565b92915050565b6000813590506101d381610389565b92915050565b6000813590506101e8816103a0565b92915050565b600080600080600060a0868803121561020657600080fd5b6000610214888289016101c4565b9550506020610225888289016101af565b9450506040610236888289016101d9565b9350506060610247888289016101d9565b9250506080610258888289016101d9565b9150509295509295909350565b61026e81610300565b82525050565b61027d8161034e565b82525050565b61028c81610344565b82525050565b60006020820190506102a76000830184610265565b92915050565b600060a0820190506102c26000830188610274565b6102cf6020830187610265565b6102dc6040830186610283565b6102e96060830185610283565b6102f66080830184610283565b9695505050505050565b600061030b82610324565b9050919050565b600061031d82610300565b9050919050565b600073ffffffffffffffffffffffffffffffffffffffff82169050919050565b6000819050919050565b600061035982610360565b9050919050565b600061036b82610324565b9050919050565b61037b81610300565b811461038657600080fd5b50565b61039281610312565b811461039d57600080fd5b50565b6103a981610344565b81146103b457600080fd5b5056fea2646970667358221220d814db8d7835da983500f29349c9379e9beecfa756338581b687090a6bd3199464736f6c63430008040033608060405234801561001057600080fd5b5060016000806101000a81548173ffffffffffffffffffffffffffffffffffffffff021916908373ffffffffffffffffffffffffffffffffffffffff160217905550611887806100616000396000f3fe608060405234801561001057600080fd5b50600436106100a95760003560e01c80636d6a4889116100715780636d6a48891461016857806386d1a69f14610186578063b69ef8a8146101a4578063c062dc5f146101c2578063f934436e146101e0578063fc0c546a146101fc576100a9565b806314bbe21c146100ae57806338af3eed146100de5780635b940081146100fc5780635d1e2d1b1461011a57806363ef16271461014a575b600080fd5b6100c860048036038101906100c39190610dea565b61021a565b6040516100d5919061111f565b60405180910390f35b6100e66103ac565b6040516100f391906110db565b60405180910390f35b6101046103d6565b60405161011191906112e8565b60405180910390f35b610134600480360381019061012f9190610e3c565b610477565b604051610141919061111f565b60405180910390f35b61015261079e565b60405161015f91906112e8565b60405180910390f35b6101706107a8565b60405161017d91906112e8565b60405180910390f35b61018e6107b2565b60405161019b919061111f565b60405180910390f35b6101ac6109ab565b6040516101b991906112e8565b60405180910390f35b6101ca610a42565b6040516101d791906112e8565b60405180910390f35b6101fa60048036038101906101f59190610ea1565b610a4c565b005b610204610d43565b604051610211919061113a565b60405180910390f35b60006102246103ac565b73ffffffffffffffffffffffffffffffffffffffff163373ffffffffffffffffffffffffffffffffffffffff1614610291576040517f08c379a0000000000000000000000000000000000000000000000000000000008152600401610288906111c8565b60405180910390fd5b600073ffffffffffffffffffffffffffffffffffffffff168273ffffffffffffffffffffffffffffffffffffffff161415610301576040517f08c379a00000000000000000000000000000000000000000000000000000000081526004016102f8906111e8565b60405180910390fd5b8173ffffffffffffffffffffffffffffffffffffffff166103206103ac565b73ffffffffffffffffffffffffffffffffffffffff167f57005c5083fa0952870a7906715a2f6f9ef2d01b4a423e4b3ce59c6129b1a76360405160405180910390a381600160006101000a81548173ffffffffffffffffffffffffffffffffffffffff021916908373ffffffffffffffffffffffffffffffffffffffff16021790555060019050919050565b6000600160009054906101000a900473ffffffffffffffffffffffffffffffffffffffff16905090565b60006002544210156103eb5760009050610474565b60006103f56109ab565b9050600081141561040a576000915050610474565b6000600454141561041e5780915050610474565b60006004546002544261043191906113f5565b61043b919061136a565b9050600060035460018361044f9190611314565b610459919061139b565b905080831161046d57829350505050610474565b8093505050505b90565b6000806104826109ab565b905061048c6103ac565b73ffffffffffffffffffffffffffffffffffffffff163373ffffffffffffffffffffffffffffffffffffffff16146104f9576040517f08c379a00000000000000000000000000000000000000000000000000000000081526004016104f0906111c8565b60405180910390fd5b600073ffffffffffffffffffffffffffffffffffffffff168473ffffffffffffffffffffffffffffffffffffffff161415610569576040517f08c379a000000000000000000000000000000000000000000000000000000000815260040161056090611208565b60405180910390fd5b600083116105ac576040517f08c379a00000000000000000000000000000000000000000000000000000000081526004016105a390611288565b60405180910390fd5b808311156105ef576040517f08c379a00000000000000000000000000000000000000000000000000000000081526004016105e6906112a8565b60405180910390fd5b600080600454111561061757818460035461060a919061139b565b610614919061136a565b90505b6000600560009054906101000a900473ffffffffffffffffffffffffffffffffffffffff1673ffffffffffffffffffffffffffffffffffffffff16636acaa16e61065f610d43565b88600254866004546040518663ffffffff1660e01b8152600401610687959493929190611155565b602060405180830381600087803b1580156106a157600080fd5b505af11580156106b5573d6000803e3d6000fd5b505050506040513d601f19601f820116820180604052508101906106d99190610e13565b90506106e3610d43565b73ffffffffffffffffffffffffffffffffffffffff1663a9059cbb82876040518363ffffffff1660e01b815260040161071d9291906110f6565b602060405180830381600087803b15801561073757600080fd5b505af115801561074b573d6000803e3d6000fd5b505050506040513d601f19601f8201168201806040525081019061076f9190610e78565b61077857600080fd5b816003600082825461078a91906113f5565b925050819055506001935050505092915050565b6000600454905090565b6000600254905090565b60006107bc6107a8565b4210156107fe576040517f08c379a00000000000000000000000000000000000000000000000000000000081526004016107f5906111a8565b60405180910390fd5b60006108086103d6565b90506000811161084d576040517f08c379a000000000000000000000000000000000000000000000000000000000815260040161084490611268565b60405180910390fd5b6108556103ac565b73ffffffffffffffffffffffffffffffffffffffff167fb21fb52d5749b80f3182f8c6992236b5e5576681880914484d7f4c9b062e619e8260405161089a91906112e8565b60405180910390a26108aa610d43565b73ffffffffffffffffffffffffffffffffffffffff1663a9059cbb6108cd6103ac565b836040518363ffffffff1660e01b81526004016108eb9291906110f6565b602060405180830381600087803b15801561090557600080fd5b505af1158015610919573d6000803e3d6000fd5b505050506040513d601f19601f8201168201806040525081019061093d9190610e78565b61094657600080fd5b6000600454146109a35760006004546002544261096391906113f5565b61096d919061136a565b905060045460018261097f9190611314565b610989919061139b565b6002600082825461099a9190611314565b92505081905550505b600191505090565b60006109b5610d43565b73ffffffffffffffffffffffffffffffffffffffff166370a08231306040518263ffffffff1660e01b81526004016109ed91906110db565b60206040518083038186803b158015610a0557600080fd5b505afa158015610a19573d6000803e3d6000fd5b505050506040513d601f19601f82011682018060405250810190610a3d9190610f18565b905090565b6000600354905090565b600073ffffffffffffffffffffffffffffffffffffffff1660008054906101000a900473ffffffffffffffffffffffffffffffffffffffff1673ffffffffffffffffffffffffffffffffffffffff1614610adb576040517f08c379a0000000000000000000000000000000000000000000000000000000008152600401610ad290611248565b60405180910390fd5b600073ffffffffffffffffffffffffffffffffffffffff168573ffffffffffffffffffffffffffffffffffffffff161415610b4b576040517f08c379a0000000000000000000000000000000000000000000000000000000008152600401610b42906112c8565b60405180910390fd5b600073ffffffffffffffffffffffffffffffffffffffff168473ffffffffffffffffffffffffffffffffffffffff161415610bbb576040517f08c379a0000000000000000000000000000000000000000000000000000000008152600401610bb290611208565b60405180910390fd5b6000811480610bcb575060008214155b610c0a576040517f08c379a0000000000000000000000000000000000000000000000000000000008152600401610c0190611228565b60405180910390fd5b8373ffffffffffffffffffffffffffffffffffffffff16600073ffffffffffffffffffffffffffffffffffffffff167f57005c5083fa0952870a7906715a2f6f9ef2d01b4a423e4b3ce59c6129b1a76360405160405180910390a3846000806101000a81548173ffffffffffffffffffffffffffffffffffffffff021916908373ffffffffffffffffffffffffffffffffffffffff16021790555083600160006101000a81548173ffffffffffffffffffffffffffffffffffffffff021916908373ffffffffffffffffffffffffffffffffffffffff16021790555082600281905550816003819055508060048190555033600560006101000a81548173ffffffffffffffffffffffffffffffffffffffff021916908373ffffffffffffffffffffffffffffffffffffffff1602179055505050505050565b60008060009054906101000a900473ffffffffffffffffffffffffffffffffffffffff16905090565b600081359050610d7b816117f5565b92915050565b600081519050610d90816117f5565b92915050565b600081519050610da58161180c565b92915050565b600081359050610dba81611823565b92915050565b600081359050610dcf8161183a565b92915050565b600081519050610de48161183a565b92915050565b600060208284031215610dfc57600080fd5b6000610e0a84828501610d6c565b91505092915050565b600060208284031215610e2557600080fd5b6000610e3384828501610d81565b91505092915050565b60008060408385031215610e4f57600080fd5b6000610e5d85828601610d6c565b9250506020610e6e85828601610dc0565b9150509250929050565b600060208284031215610e8a57600080fd5b6000610e9884828501610d96565b91505092915050565b600080600080600060a08688031215610eb957600080fd5b6000610ec788828901610dab565b9550506020610ed888828901610d6c565b9450506040610ee988828901610dc0565b9350506060610efa88828901610dc0565b9250506080610f0b88828901610dc0565b9150509295509295909350565b600060208284031215610f2a57600080fd5b6000610f3884828501610dd5565b91505092915050565b610f4a81611429565b82525050565b610f598161143b565b82525050565b610f6881611483565b82525050565b6000610f7b603283611303565b9150610f8682611505565b604082019050919050565b6000610f9e602c83611303565b9150610fa982611554565b604082019050919050565b6000610fc1603283611303565b9150610fcc826115a3565b604082019050919050565b6000610fe4602a83611303565b9150610fef826115f2565b604082019050919050565b6000611007602583611303565b915061101282611641565b604082019050919050565b600061102a602283611303565b915061103582611690565b604082019050919050565b600061104d602383611303565b9150611058826116df565b604082019050919050565b6000611070601d83611303565b915061107b8261172e565b602082019050919050565b6000611093602583611303565b915061109e82611757565b604082019050919050565b60006110b6602a83611303565b91506110c1826117a6565b604082019050919050565b6110d581611479565b82525050565b60006020820190506110f06000830184610f41565b92915050565b600060408201905061110b6000830185610f41565b61111860208301846110cc565b9392505050565b60006020820190506111346000830184610f50565b92915050565b600060208201905061114f6000830184610f5f565b92915050565b600060a08201905061116a6000830188610f5f565b6111776020830187610f41565b61118460408301866110cc565b61119160608301856110cc565b61119e60808301846110cc565b9695505050505050565b600060208201905081810360008301526111c181610f6e565b9050919050565b600060208201905081810360008301526111e181610f91565b9050919050565b6000602082019050818103600083015261120181610fb4565b9050919050565b6000602082019050818103600083015261122181610fd7565b9050919050565b6000602082019050818103600083015261124181610ffa565b9050919050565b600060208201905081810360008301526112618161101d565b9050919050565b6000602082019050818103600083015261128181611040565b9050919050565b600060208201905081810360008301526112a181611063565b9050919050565b600060208201905081810360008301526112c181611086565b9050919050565b600060208201905081810360008301526112e1816110a9565b9050919050565b60006020820190506112fd60008301846110cc565b92915050565b600082825260208201905092915050565b600061131f82611479565b915061132a83611479565b9250827fffffffffffffffffffffffffffffffffffffffffffffffffffffffffffffffff0382111561135f5761135e6114a7565b5b828201905092915050565b600061137582611479565b915061138083611479565b9250826113905761138f6114d6565b5b828204905092915050565b60006113a682611479565b91506113b183611479565b9250817fffffffffffffffffffffffffffffffffffffffffffffffffffffffffffffffff04831182151516156113ea576113e96114a7565b5b828202905092915050565b600061140082611479565b915061140b83611479565b92508282101561141e5761141d6114a7565b5b828203905092915050565b600061143482611459565b9050919050565b60008115159050919050565b600061145282611429565b9050919050565b600073ffffffffffffffffffffffffffffffffffffffff82169050919050565b6000819050919050565b600061148e82611495565b9050919050565b60006114a082611459565b9050919050565b7f4e487b7100000000000000000000000000000000000000000000000000000000600052601160045260246000fd5b7f4e487b7100000000000000000000000000000000000000000000000000000000600052601260045260246000fd5b7f546f6b656e54696d656c6f636b3a2063757272656e742074696d65206973206260008201527f65666f72652072656c656173652074696d650000000000000000000000000000602082015250565b7f546f6b656e54696d656c6f636b3a2063616c6c6572206973206e6f742074686560008201527f2062656e65666963696172790000000000000000000000000000000000000000602082015250565b7f546f6b656e54696d656c6f636b3a20746865206e65772062656e65666963696160008201527f7279206973207a65726f20616464726573730000000000000000000000000000602082015250565b7f546f6b656e54696d656c6f636b3a2062656e656669636961727920616464726560008201527f7373206973207a65726f00000000000000000000000000000000000000000000602082015250565b7f546f6b656e54696d656c6f636b3a2072656c6561736520616d6f756e7420697360008201527f207a65726f000000000000000000000000000000000000000000000000000000602082015250565b7f546f6b656e54696d656c6f636b3a20616c726561647920696e697469616c697a60008201527f6564000000000000000000000000000000000000000000000000000000000000602082015250565b7f546f6b656e54696d656c6f636b3a206e6f2072656c65617361626c6520746f6b60008201527f656e730000000000000000000000000000000000000000000000000000000000602082015250565b7f546f6b656e54696d656c6f636b3a20616d6f756e74206973207a65726f000000600082015250565b7f546f6b656e54696d656c6f636b3a20616d6f756e74206578636565647320626160008201527f6c616e6365000000000000000000000000000000000000000000000000000000602082015250565b7f546f6b656e54696d656c6f636b3a20657263323020746f6b656e20616464726560008201527f7373206973207a65726f00000000000000000000000000000000000000000000602082015250565b6117fe81611429565b811461180957600080fd5b50565b6118158161143b565b811461182057600080fd5b50565b61182c81611447565b811461183757600080fd5b50565b61184381611479565b811461184e57600080fd5b5056fea26469706673582212209b1fe8dd5d04ab5173558418af4e605d685fc52035760c797a3845bbe67b3e0664736f6c63430008040033",
  "immutableReferences": {},
  "source": "// SPDX-License-Identifier: MIT\npragma solidity 0.8.4;\n\nimport \"./Ownable.sol\";\nimport './TokenTimelock.sol';\nimport \"./ERC20.sol\";\n\ncontract DragonSoul is ERC20, Ownable {\n    uint256 private _maxTotalSupply;\n    \n    constructor() ERC20(\"DragonSoulStone\", \"DSS\") {\n        _maxTotalSupply = 1000000000e18;\n        \n        // init timelock factory\n        TimelockFactory timelockFactory = new TimelockFactory();\n\n        // ERC20\n        // private sales\n        mint(0xb40eA1DA6A55bDf2b5BFbd054cC7dDB53F8ac615, 73000000e18*25/100);\n        address privateSalesLock = timelockFactory.createTimelock(this, 0xb40eA1DA6A55bDf2b5BFbd054cC7dDB53F8ac615, block.timestamp + 30 days, 73000000e18*25/100, 30 days);\n        mint(privateSalesLock, 73000000e18*75/100);\n        // team\n        address teamLock = timelockFactory.createTimelock(this, 0xb40eA1DA6A55bDf2b5BFbd054cC7dDB53F8ac615, block.timestamp + 180 days, 250000000e18*8/100, 30 days);\n        mint(teamLock, 250000000e18);\n        // advisors\n        address advisorsLock = timelockFactory.createTimelock(this, 0xb40eA1DA6A55bDf2b5BFbd054cC7dDB53F8ac615, block.timestamp + 90 days, 50000000e18*8/100, 30 days);\n        mint(advisorsLock, 50000000e18);\n        // marketing\n        mint(0xb40eA1DA6A55bDf2b5BFbd054cC7dDB53F8ac615, 30000000e18*10/100);\n        address marketingERC20Lock = timelockFactory.createTimelock(this, 0xb40eA1DA6A55bDf2b5BFbd054cC7dDB53F8ac615, block.timestamp + 30 days, 30000000e18*5/100, 30 days);\n        mint(marketingERC20Lock, 30000000e18*90/100);\n        // exchange liquidity provision\n        mint(0xb40eA1DA6A55bDf2b5BFbd054cC7dDB53F8ac615, 23333333e18);\n        // BEP20\n        // public sales\n        mint(0xb40eA1DA6A55bDf2b5BFbd054cC7dDB53F8ac615, 6666667e18); // for BSCPad\n        // ecosystem growth\n        address growthLock = timelockFactory.createTimelock(this, 0xb40eA1DA6A55bDf2b5BFbd054cC7dDB53F8ac615, block.timestamp + 90 days, 0, 0);\n        mint(growthLock, 530000000e18);\n\n        // // marketing\n        // mint(0x7e318e80EB8e401451334cAa2278E39Da7F6C49B, 20000000e18*10/100);\n        // address marketingBEP20Lock = timelockFactory.createTimelock(this, 0x7e318e80EB8e401451334cAa2278E39Da7F6C49B, block.timestamp + 30 days, 20000000e18*5/100, 30 days);\n        // mint(marketingBEP20Lock, 20000000e18*90/100);\n        // // exchange liquidity provision\n        // mint(0x0a515Ac284E3c741575A4fd71C27e377a19D5E6D, 6666667e18);\n    }\n\n    function mint(address account, uint256 amount) public onlyOwner returns (bool) {\n        require(totalSupply() + amount <= _maxTotalSupply, \"DragonSoul Token: mint more than the max total supply\");\n        _mint(account, amount);\n        return true;\n    }\n\n    function burn(uint256 amount) public onlyOwner returns (bool) {\n        _burn(msg.sender, amount);\n        return true;\n    }\n}",
  "sourcePath": "/home/hieu/Blockchain/birdisland/contracts/core/erc20/DragonSoul.sol",
  "compiler": {
    "name": "solc",
    "version": "0.8.4+commit.c7e474f2.Emscripten.clang"
  },
  "schemaVersion": "3.4.2",
  "updatedAt": "2021-08-14T05:35:29.384Z",
  "networkType": "ethereum",
  "devdoc": {
    "kind": "dev",
    "methods": {
      "allowance(address,address)": {
        "details": "Returns the remaining number of tokens that `spender` will be allowed to spend on behalf of `owner` through {transferFrom}. This is zero by default. This value changes when {approve} or {transferFrom} are called."
      },
      "approve(address,uint256)": {
        "details": "Sets `amount` as the allowance of `spender` over the caller's tokens. Returns a boolean value indicating whether the operation succeeded. IMPORTANT: Beware that changing an allowance with this method brings the risk that someone may use both the old and the new allowance by unfortunate transaction ordering. One possible solution to mitigate this race condition is to first reduce the spender's allowance to 0 and set the desired value afterwards: https://github.com/ethereum/EIPs/issues/20#issuecomment-263524729 Emits an {Approval} event."
      },
      "balanceOf(address)": {
        "details": "Returns the amount of tokens owned by `account`."
      },
      "decimals()": {
        "details": "Returns the decimals places of the token."
      },
      "name()": {
        "details": "Returns the name of the token."
      },
      "owner()": {
        "details": "Returns the address of the current owner."
      },
      "renounceOwnership()": {
        "details": "Leaves the contract without owner. It will not be possible to call `onlyOwner` functions anymore. Can only be called by the current owner. NOTE: Renouncing ownership will leave the contract without an owner, thereby removing any functionality that is only available to the owner."
      },
      "symbol()": {
        "details": "Returns the symbol of the token."
      },
      "totalSupply()": {
        "details": "Returns the amount of tokens in existence."
      },
      "transfer(address,uint256)": {
        "details": "Moves `amount` tokens from the caller's account to `recipient`. Returns a boolean value indicating whether the operation succeeded. Emits a {Transfer} event."
      },
      "transferFrom(address,address,uint256)": {
        "details": "Moves `amount` tokens from `sender` to `recipient` using the allowance mechanism. `amount` is then deducted from the caller's allowance. Returns a boolean value indicating whether the operation succeeded. Emits a {Transfer} event."
      },
      "transferOwnership(address)": {
        "details": "Transfers ownership of the contract to a new account (`newOwner`). Can only be called by the current owner."
      }
    },
    "version": 1
  },
  "userdoc": {
    "kind": "user",
    "methods": {},
    "version": 1
  }
}